:100000000C942A000C943C000C943C000C943C0092
:100010000C943C000C943C000C943C000C943C0070
:100020000C94B5010C943C000C943C000C94D6014B
:100030000C943C000C943C000C943C000C943C0050
:100040000C943C000C943C000C943C000C943C0040
:100050000C943C0011241FBECFE5D4E0DEBFCDBF21
:1000600020E0A0E6B0E001C01D92A336B207E1F7A0
:100070000E9403020C9423020C9400008FEF87BBB4
:1000800088BB089560E070E06230710524F520E0DF
:1000900030E028303105E4F448B381E090E0022EEE
:1000A00002C0880F991F0A94E2F7982F9095942325
:1000B00098BB4FEF50E7E2E041505040E040E1F79D
:1000C00000C0000098B3892B88BB2F5F3F4FE1CF62
:1000D0006F5F7F4FD9CF089560E070E062307105A7
:1000E0000CF055C020E030E0243031052CF5E8B3A9
:1000F000A9014C5F5F4F81E090E0DC0102C0AA0FD4
:10010000BB1F4A95E2F7AD014E2B48BB48B3022E08
:1001100002C0880F991F0A94E2F78095842388BB58
:10012000BFEF40E782E0B15040408040E1F700C0BF
:1001300000002F5F3F4FD8CF20E030E02530310561
:100140001CF5E8B381E090E0AC01022E02C0440F40
:10015000551F0A94E2F74E2B48BB48B3F901349679
:1001600002C0880F991FEA95E2F78095842388BB27
:100170009FEFA0E7B2E09150A040B040E1F700C08F
:1001800000002F5F3F4FDACF6F5F7F4FA7CF0895FB
:1001900020E030E0223031050CF063C040E050E058
:1001A000483051057CF468B381E090E0042E02C031
:1001B000880F991F0A94E2F78095862388BB4E5FCB
:1001C0005F4FEECF4FEF84E39CE041508040904082
:1001D000E1F700C0000040E050E04830510574F401
:1001E00068B381E090E0042E02C0880F991F0A9442
:1001F000E2F7862B88BB4E5F5F4FEFCF41E050E0C8
:10020000483051057CF468B381E090E0042E02C0D0
:10021000880F991F0A94E2F78095862388BB4E5F6A
:100220005F4FEECF4FEF84E39CE041508040904021
:10023000E1F700C0000041E050E04830510574F49F
:1002400068B381E090E0042E02C0880F991F0A94E1
:10025000E2F7862B88BB4E5F5F4FEFCF2F5F3F4F9C
:1002600099CF089560E070E0623071050CF065C0D0
:1002700020E030E02430310564F5E8B381E090E01F
:10028000AC01022E02C0440F551F0A94E2F7542F0E
:1002900050955E2358BB58B3E7E0F0E0E21BF30B48
:1002A00002C0880F991FEA95E2F7982F9095952341
:1002B00098BBAFEFE1EEF4E0A150E040F040E1F791
:1002C00000C0000098B3842B892B88BB2F5F3F4F61
:1002D000D1CF25E030E02830310564F5E8B381E086
:1002E00090E0AC01022E02C0440F551F0A94E2F7C1
:1002F000542F50955E2358BB58B3E7E0F0E0E21B63
:10030000F30B02C0880F991FEA95E2F7982F90959A
:10031000952398BBAFEFE1EEF4E0A150E040F04050
:10032000E1F700C0000098B3842B892B88BB2F5FB6
:100330003F4FD1CF6F5F7F4F97CF08958FEF87BB30
:1003400010926200109261001DBC1CBC1FBC81E0B9
:100350008EBD84E089BF089586E880BD1BB883E325
:1003600089B910BC88E18AB908951F920F920FB61F
:100370000F9211248F939F9380916100909162005E
:10038000019690936200809361008091610090914A
:100390006200049720F010926200109261009F9119
:1003A0008F910F900FBE0F901F9018951F920F9274
:1003B0000FB60F9211248F938CB1813321F481E019
:1003C0008093600011C0823321F482E0809360004A
:1003D0000BC0833321F483E08093600005C0843335
:1003E00019F484E0809360008F910F900FBE0F90FE
:1003F0001F9018950E949E010E94AC0178948AB1CA
:1004000080688AB908950E943E000E94FA01809196
:100410006000813319F40E944200F9CF809160009E
:10042000823319F40E946C00F2CF80916000833314
:1004300019F40E94C800EBCF80916000843339F733
:0A0440000E943201E4CFF894FFCFD0
:00000001FF
